{
  "_format": "hh-sol-artifact-1",
  "contractName": "DungeonCrawler",
  "sourceName": "contracts/examples/DungeonCrawler.sol",
  "abi": [
    {
      "inputs": [
        {
          "internalType": "address",
          "name": "_feeCollector",
          "type": "address"
        }
      ],
      "stateMutability": "nonpayable",
      "type": "constructor"
    },
    {
      "anonymous": false,
      "inputs": [
        {
          "indexed": true,
          "internalType": "address",
          "name": "player",
          "type": "address"
        },
        {
          "indexed": true,
          "internalType": "uint256",
          "name": "characterId",
          "type": "uint256"
        },
        {
          "indexed": false,
          "internalType": "enum DungeonCrawler.Class",
          "name": "class",
          "type": "uint8"
        },
        {
          "indexed": false,
          "internalType": "uint8",
          "name": "strength",
          "type": "uint8"
        },
        {
          "indexed": false,
          "internalType": "uint8",
          "name": "dexterity",
          "type": "uint8"
        },
        {
          "indexed": false,
          "internalType": "uint8",
          "name": "intelligence",
          "type": "uint8"
        },
        {
          "indexed": false,
          "internalType": "uint256",
          "name": "health",
          "type": "uint256"
        },
        {
          "indexed": false,
          "internalType": "uint256",
          "name": "wealth",
          "type": "uint256"
        },
        {
          "indexed": false,
          "internalType": "uint256",
          "name": "createdAt",
          "type": "uint256"
        }
      ],
      "name": "CharacterCreated",
      "type": "event"
    },
    {
      "anonymous": false,
      "inputs": [
        {
          "indexed": true,
          "internalType": "address",
          "name": "player",
          "type": "address"
        },
        {
          "indexed": true,
          "internalType": "uint256",
          "name": "characterId",
          "type": "uint256"
        },
        {
          "indexed": false,
          "internalType": "uint256",
          "name": "requestId",
          "type": "uint256"
        }
      ],
      "name": "CharacterCreationStarted",
      "type": "event"
    },
    {
      "anonymous": false,
      "inputs": [
        {
          "indexed": true,
          "internalType": "address",
          "name": "player",
          "type": "address"
        },
        {
          "indexed": true,
          "internalType": "uint256",
          "name": "characterId",
          "type": "uint256"
        },
        {
          "indexed": false,
          "internalType": "uint256",
          "name": "interactionId",
          "type": "uint256"
        }
      ],
      "name": "CharacterLegendary",
      "type": "event"
    },
    {
      "anonymous": false,
      "inputs": [
        {
          "indexed": true,
          "internalType": "uint256",
          "name": "interactionId",
          "type": "uint256"
        },
        {
          "indexed": true,
          "internalType": "address",
          "name": "player",
          "type": "address"
        },
        {
          "indexed": true,
          "internalType": "uint256",
          "name": "characterId",
          "type": "uint256"
        },
        {
          "indexed": false,
          "internalType": "enum DungeonCrawler.InteractionType",
          "name": "interactionType",
          "type": "uint8"
        },
        {
          "indexed": false,
          "internalType": "bool",
          "name": "success",
          "type": "bool"
        },
        {
          "indexed": false,
          "internalType": "uint256",
          "name": "healthChange",
          "type": "uint256"
        },
        {
          "indexed": false,
          "internalType": "uint256",
          "name": "wealthChange",
          "type": "uint256"
        },
        {
          "indexed": false,
          "internalType": "uint256",
          "name": "actionCount",
          "type": "uint256"
        },
        {
          "indexed": false,
          "internalType": "string",
          "name": "outcome",
          "type": "string"
        },
        {
          "indexed": false,
          "internalType": "bytes32",
          "name": "vrfSeed",
          "type": "bytes32"
        }
      ],
      "name": "InteractionCompleted",
      "type": "event"
    },
    {
      "anonymous": false,
      "inputs": [
        {
          "indexed": true,
          "internalType": "address",
          "name": "player",
          "type": "address"
        },
        {
          "indexed": true,
          "internalType": "uint256",
          "name": "characterId",
          "type": "uint256"
        },
        {
          "indexed": true,
          "internalType": "uint256",
          "name": "interactionId",
          "type": "uint256"
        },
        {
          "indexed": false,
          "internalType": "enum DungeonCrawler.InteractionType",
          "name": "interactionType",
          "type": "uint8"
        },
        {
          "indexed": false,
          "internalType": "uint256",
          "name": "requestId",
          "type": "uint256"
        }
      ],
      "name": "InteractionStarted",
      "type": "event"
    },
    {
      "anonymous": false,
      "inputs": [
        {
          "indexed": true,
          "internalType": "address",
          "name": "player",
          "type": "address"
        },
        {
          "indexed": true,
          "internalType": "uint256",
          "name": "characterId",
          "type": "uint256"
        },
        {
          "indexed": false,
          "internalType": "uint256",
          "name": "interactionId",
          "type": "uint256"
        }
      ],
      "name": "PlayerDied",
      "type": "event"
    },
    {
      "inputs": [],
      "name": "MAX_ACTIONS",
      "outputs": [
        {
          "internalType": "uint256",
          "name": "",
          "type": "uint256"
        }
      ],
      "stateMutability": "view",
      "type": "function"
    },
    {
      "inputs": [],
      "name": "characterCounter",
      "outputs": [
        {
          "internalType": "uint256",
          "name": "",
          "type": "uint256"
        }
      ],
      "stateMutability": "view",
      "type": "function"
    },
    {
      "inputs": [
        {
          "internalType": "address",
          "name": "",
          "type": "address"
        },
        {
          "internalType": "uint256",
          "name": "",
          "type": "uint256"
        },
        {
          "internalType": "uint256",
          "name": "",
          "type": "uint256"
        }
      ],
      "name": "characterInteractions",
      "outputs": [
        {
          "internalType": "uint256",
          "name": "",
          "type": "uint256"
        }
      ],
      "stateMutability": "view",
      "type": "function"
    },
    {
      "inputs": [
        {
          "internalType": "uint256",
          "name": "",
          "type": "uint256"
        }
      ],
      "name": "characters",
      "outputs": [
        {
          "internalType": "address",
          "name": "player",
          "type": "address"
        },
        {
          "internalType": "enum DungeonCrawler.Class",
          "name": "class",
          "type": "uint8"
        },
        {
          "internalType": "uint8",
          "name": "strength",
          "type": "uint8"
        },
        {
          "internalType": "uint8",
          "name": "dexterity",
          "type": "uint8"
        },
        {
          "internalType": "uint8",
          "name": "intelligence",
          "type": "uint8"
        },
        {
          "internalType": "uint8",
          "name": "wisdom",
          "type": "uint8"
        },
        {
          "internalType": "uint8",
          "name": "constitution",
          "type": "uint8"
        },
        {
          "internalType": "uint8",
          "name": "charisma",
          "type": "uint8"
        },
        {
          "internalType": "uint256",
          "name": "level",
          "type": "uint256"
        },
        {
          "internalType": "uint256",
          "name": "experience",
          "type": "uint256"
        },
        {
          "internalType": "uint256",
          "name": "health",
          "type": "uint256"
        },
        {
          "internalType": "uint256",
          "name": "maxHealth",
          "type": "uint256"
        },
        {
          "internalType": "uint256",
          "name": "wealth",
          "type": "uint256"
        },
        {
          "internalType": "bytes32",
          "name": "creationSeed",
          "type": "bytes32"
        },
        {
          "internalType": "bool",
          "name": "alive",
          "type": "bool"
        },
        {
          "internalType": "uint256",
          "name": "actionCount",
          "type": "uint256"
        },
        {
          "internalType": "enum DungeonCrawler.CharacterStatus",
          "name": "status",
          "type": "uint8"
        },
        {
          "internalType": "uint256",
          "name": "createdAt",
          "type": "uint256"
        }
      ],
      "stateMutability": "view",
      "type": "function"
    },
    {
      "inputs": [
        {
          "internalType": "uint256",
          "name": "_interactionId",
          "type": "uint256"
        }
      ],
      "name": "completeInteraction",
      "outputs": [],
      "stateMutability": "nonpayable",
      "type": "function"
    },
    {
      "inputs": [],
      "name": "createCharacter",
      "outputs": [
        {
          "internalType": "uint256",
          "name": "",
          "type": "uint256"
        }
      ],
      "stateMutability": "nonpayable",
      "type": "function"
    },
    {
      "inputs": [],
      "name": "feeCollector",
      "outputs": [
        {
          "internalType": "address",
          "name": "",
          "type": "address"
        }
      ],
      "stateMutability": "view",
      "type": "function"
    },
    {
      "inputs": [
        {
          "internalType": "uint256",
          "name": "_requestId",
          "type": "uint256"
        }
      ],
      "name": "finalizeCharacter",
      "outputs": [],
      "stateMutability": "nonpayable",
      "type": "function"
    },
    {
      "inputs": [
        {
          "internalType": "uint256",
          "name": "characterId",
          "type": "uint256"
        }
      ],
      "name": "getCharacter",
      "outputs": [
        {
          "internalType": "address",
          "name": "player",
          "type": "address"
        },
        {
          "internalType": "enum DungeonCrawler.Class",
          "name": "class",
          "type": "uint8"
        },
        {
          "internalType": "uint8",
          "name": "strength",
          "type": "uint8"
        },
        {
          "internalType": "uint8",
          "name": "dexterity",
          "type": "uint8"
        },
        {
          "internalType": "uint8",
          "name": "intelligence",
          "type": "uint8"
        },
        {
          "internalType": "uint8",
          "name": "wisdom",
          "type": "uint8"
        },
        {
          "internalType": "uint8",
          "name": "constitution",
          "type": "uint8"
        },
        {
          "internalType": "uint8",
          "name": "charisma",
          "type": "uint8"
        },
        {
          "internalType": "uint256",
          "name": "level",
          "type": "uint256"
        },
        {
          "internalType": "uint256",
          "name": "health",
          "type": "uint256"
        },
        {
          "internalType": "uint256",
          "name": "maxHealth",
          "type": "uint256"
        },
        {
          "internalType": "uint256",
          "name": "wealth",
          "type": "uint256"
        },
        {
          "internalType": "bool",
          "name": "alive",
          "type": "bool"
        },
        {
          "internalType": "uint256",
          "name": "actionCount",
          "type": "uint256"
        },
        {
          "internalType": "enum DungeonCrawler.CharacterStatus",
          "name": "status",
          "type": "uint8"
        },
        {
          "internalType": "uint256",
          "name": "createdAt",
          "type": "uint256"
        }
      ],
      "stateMutability": "view",
      "type": "function"
    },
    {
      "inputs": [
        {
          "internalType": "address",
          "name": "player",
          "type": "address"
        },
        {
          "internalType": "uint256",
          "name": "characterId",
          "type": "uint256"
        }
      ],
      "name": "getCharacterInteractions",
      "outputs": [
        {
          "internalType": "uint256[]",
          "name": "",
          "type": "uint256[]"
        }
      ],
      "stateMutability": "view",
      "type": "function"
    },
    {
      "inputs": [
        {
          "internalType": "uint256",
          "name": "interactionId",
          "type": "uint256"
        }
      ],
      "name": "getInteraction",
      "outputs": [
        {
          "internalType": "uint256",
          "name": "characterId",
          "type": "uint256"
        },
        {
          "internalType": "enum DungeonCrawler.InteractionType",
          "name": "interactionType",
          "type": "uint8"
        },
        {
          "internalType": "bool",
          "name": "completed",
          "type": "bool"
        },
        {
          "internalType": "bool",
          "name": "success",
          "type": "bool"
        },
        {
          "internalType": "uint256",
          "name": "healthChange",
          "type": "uint256"
        },
        {
          "internalType": "uint256",
          "name": "wealthChange",
          "type": "uint256"
        },
        {
          "internalType": "string",
          "name": "outcome",
          "type": "string"
        },
        {
          "internalType": "bytes32",
          "name": "vrfSeed",
          "type": "bytes32"
        }
      ],
      "stateMutability": "view",
      "type": "function"
    },
    {
      "inputs": [
        {
          "internalType": "address",
          "name": "player",
          "type": "address"
        }
      ],
      "name": "getPlayerCharacters",
      "outputs": [
        {
          "internalType": "uint256[]",
          "name": "",
          "type": "uint256[]"
        }
      ],
      "stateMutability": "view",
      "type": "function"
    },
    {
      "inputs": [],
      "name": "interactionCounter",
      "outputs": [
        {
          "internalType": "uint256",
          "name": "",
          "type": "uint256"
        }
      ],
      "stateMutability": "view",
      "type": "function"
    },
    {
      "inputs": [
        {
          "internalType": "uint256",
          "name": "",
          "type": "uint256"
        }
      ],
      "name": "interactions",
      "outputs": [
        {
          "internalType": "address",
          "name": "player",
          "type": "address"
        },
        {
          "internalType": "uint256",
          "name": "characterId",
          "type": "uint256"
        },
        {
          "internalType": "uint256",
          "name": "requestId",
          "type": "uint256"
        },
        {
          "internalType": "enum DungeonCrawler.InteractionType",
          "name": "interactionType",
          "type": "uint8"
        },
        {
          "internalType": "bytes32",
          "name": "vrfSeed",
          "type": "bytes32"
        },
        {
          "internalType": "bool",
          "name": "completed",
          "type": "bool"
        },
        {
          "internalType": "bool",
          "name": "success",
          "type": "bool"
        },
        {
          "internalType": "uint256",
          "name": "healthChange",
          "type": "uint256"
        },
        {
          "internalType": "uint256",
          "name": "wealthChange",
          "type": "uint256"
        },
        {
          "internalType": "string",
          "name": "outcome",
          "type": "string"
        },
        {
          "internalType": "uint256",
          "name": "timestamp",
          "type": "uint256"
        }
      ],
      "stateMutability": "view",
      "type": "function"
    },
    {
      "inputs": [
        {
          "internalType": "address",
          "name": "",
          "type": "address"
        },
        {
          "internalType": "uint256",
          "name": "",
          "type": "uint256"
        }
      ],
      "name": "playerCharacters",
      "outputs": [
        {
          "internalType": "uint256",
          "name": "",
          "type": "uint256"
        }
      ],
      "stateMutability": "view",
      "type": "function"
    },
    {
      "inputs": [
        {
          "internalType": "uint256",
          "name": "_requestId",
          "type": "uint256"
        },
        {
          "internalType": "bytes32",
          "name": "_randomness",
          "type": "bytes32"
        }
      ],
      "name": "receiveRandomness",
      "outputs": [],
      "stateMutability": "nonpayable",
      "type": "function"
    },
    {
      "inputs": [
        {
          "internalType": "uint256",
          "name": "",
          "type": "uint256"
        }
      ],
      "name": "requestToCharacterId",
      "outputs": [
        {
          "internalType": "uint256",
          "name": "",
          "type": "uint256"
        }
      ],
      "stateMutability": "view",
      "type": "function"
    },
    {
      "inputs": [
        {
          "internalType": "uint256",
          "name": "",
          "type": "uint256"
        }
      ],
      "name": "requestToInteractionId",
      "outputs": [
        {
          "internalType": "uint256",
          "name": "",
          "type": "uint256"
        }
      ],
      "stateMutability": "view",
      "type": "function"
    },
    {
      "inputs": [
        {
          "internalType": "uint256",
          "name": "",
          "type": "uint256"
        }
      ],
      "name": "requestToPlayer",
      "outputs": [
        {
          "internalType": "address",
          "name": "",
          "type": "address"
        }
      ],
      "stateMutability": "view",
      "type": "function"
    },
    {
      "inputs": [
        {
          "internalType": "uint256",
          "name": "_characterId",
          "type": "uint256"
        },
        {
          "internalType": "enum DungeonCrawler.InteractionType",
          "name": "_interactionType",
          "type": "uint8"
        }
      ],
      "name": "startInteraction",
      "outputs": [
        {
          "internalType": "uint256",
          "name": "",
          "type": "uint256"
        }
      ],
      "stateMutability": "nonpayable",
      "type": "function"
    }
  ],
  "bytecode": "0x60a0346100d357601f6200271638819003918201601f19168301916001600160401b038311848410176100d8578084926020946040528339810103126100d357516001600160a01b0381168082036100d3571561008e576080526040516126279081620000ef82396080518181816101a001528181610769015281816108700152818161100801526113670152f35b60405162461bcd60e51b815260206004820152601560248201527f496e76616c69642066656520636f6c6c6563746f7200000000000000000000006044820152606490fd5b600080fd5b634e487b7160e01b600052604160045260246000fdfe60c0604052600436101561001257600080fd5b60003560e01c80630ba460ff14611f68578063188736ae14611f345780631ab0d43a14611ed05780632fedff2f146112a757806331ee8a3314611221578063345cb270146111f5578063431ac657146111e25780634810bc59146110ce5780635537f05914610fc15780636d79ac0a14610f3a5780637c89b69514610f1c5780637dde8dae14610efe57806396def70914610ee2578063a2501fe814610daa578063b6cbf42d146107f0578063bdb1392a14610798578063c415b95c14610753578063d7b8197114610727578063dabb0531146105d75763eb6c034f146100f857600080fd5b34610547576040366003190112610547576062602435101561054757600435600090815260208190526040902080546001600160a01b0316330361059d576001810154156105605761015060ff600783015416612418565b60ff60098201541690600382101561050757600860649161017461017c9415612458565b01541061249b565b604051637a2c4c4d60e01b81526001600482015233602482015260208160448160007f00000000000000000000000000000000000000000000000000000000000000006001600160a01b03165af19081156105545760009161051d575b506101e560085461228f565b80600855604051906101f68261206f565b3382526004356020830152826040830152610216602435606084016124e7565b60006080830152600060a0830152600060c0830152600060e0830152600061010083015260405180602081011067ffffffffffffffff6020830111176104f15760208101604052600081526101208301524261014083015280600052600260205260406000209260018060a01b038351166001600160601b0360a01b855416178455602083015160018501556040830151600285015560038401606084015160628110156105075760ff8019835416911617905560808301516004850155610312600585016102f760a08601511515829060ff801983541691151516179055565b60c0850151815461ff00191690151560081b61ff0016179055565b60e08301516006850155610100830151600785015561012083015193845167ffffffffffffffff81116104f15761034c6008830154612035565b95601f87116104aa575b602096508690601f831160011461043557958260099361014093889960009261042a575b50508160011b916000199060031b1c19161760088501555b01519101553360005260038452604060002060043560005284526103ba8260406000206123c5565b80600052600484526040600020336001600160601b0360a01b8254161790556006845281604060002055604051906103f4826024356121a9565b84820152600435907f6da061a05e702207626eb46c065161bf2f507a01acf0f3eb6f5652059f06fd4760403392a4604051908152f35b01519050388061037a565b9060088401600052876000209160005b601f198516811061049357508361014093889993600193600997601f1981161061047a575b505050811b016008850155610392565b015160001960f88460031b161c1916905538808061046a565b919289600181928685015181550194019201610445565b600883016000526020600020601f830160051c8101602084106104ea575b601f890160051c820181106104de575050610356565b600081556001016104c8565b50806104c8565b634e487b7160e01b600052604160045260246000fd5b634e487b7160e01b600052602160045260246000fd5b90506020813d60201161054c575b81610538602093836120e1565b810103126105475751386101d9565b600080fd5b3d915061052b565b6040513d6000823e3d90fd5b60405162461bcd60e51b815260206004820152601560248201527410da185c9858dd195c881b9bdd0818dc99585d1959605a1b6044820152606490fd5b60405162461bcd60e51b81526020600482015260126024820152712737ba103cb7bab91031b430b930b1ba32b960711b6044820152606490fd5b3461054757602036600319011261054757600435600052600060205261060060406000206124f3565b805160208201516001600160a01b039091169160048210156105075760039160ff8060408401511690806060850151169080608086015116908060a087015116908060c0880151169060e0880151169061010088015192610140890151946101608a0151966101808b0151986101c08c015115159a6101e08d01519c61020060a05260a0518101519e8f10156105075761022001519e60405180608052526080516020016106ad91612275565b60805160400152608051606001526080516080015260805160a0015260805160c0015260805160e00152608051610100015260805161012001526080516101400152608051610160015260805161018001526080516101a001526080516101c00161071791612282565b6080516101e0015260a051608051f35b346105475760203660031901126105475760043560005260056020526020604060002054604051908152f35b34610547576000366003190112610547576040517f00000000000000000000000000000000000000000000000000000000000000006001600160a01b03168152602090f35b34610547576040366003190112610547576107b16121f6565b6001600160a01b0316600090815260016020526040902080546024359190821015610547576020916107e29161220c565b90546040519160031b1c8152f35b346105475760203660031901126105475760043580600052600460205260018060a01b03604060002054163303610d72578060005260056020526040600020549061083c82151561229e565b816000526000602052600160406000200154610d2d5760405163103a258b60e31b81526004810191909152610100816024817f00000000000000000000000000000000000000000000000000000000000000006001600160a01b03165afa90811561055457600090600092610cee575b506108b690612338565b6108c1811515612384565b60006102206040516108d28161208c565b8281528260208201528260408201528260608201528260808201528260a08201528260c08201528260e08201528261010082015282610120820152826101408201528261016082015282610180820152826101a0820152826101c0820152826101e0820152826102008201520152600460038216101561050757600f811690600382018211610cc857600881901c600f166003810110610cc857600f8160101c16600381018111610cc857600f8260181c16600381018111610cc857602083901c600f166003810110610cc857600f8360281c1690600382018211610cc85760146003851615610ce6575b600380861614610cde575b602085901c600f1660030160ff81168015600260019390931b6101fe1691909104919091141715610cc857610a0e906101fe6003600f8860201c160160011b16906123ff565b926029603086901c06600a810110610cc85760405195610a2d8761208c565b338752610a40600387166020890161240c565b60030160ff1660408701528460081c600f1660030160ff16606087015260030160ff16608086015260030160ff1660a08501528260201c600f1660030160ff1660c085015260030160ff1660e0840152610100830160019052610120830160009052806101408401526101608301528060301c60299006600a016101808301526101a08201526101c08101600190526101e0810160009052610200810160009052426102208201528160005260006020526040600020600160a01b60019003825116815490602084015160048110156105075760ff60a81b604086015160a81b1660ff60b01b606087015160b01b1660ff60b81b608088015160b81b169160ff60c01b60a089015160c01b169360ff60c81b60c08a015160c81b169560ff60d01b60e08b015160d01b169764ffffffffff60d81b16179060ff60a01b9060a01b16171717171717178155610100820151600182015561012082015160028201556101408201516003820155610160820151600482015561018082015160058201556101a08201516006820155610bec6101c08301511515600783019060ff801983541691151516179055565b6101e08201516008820155610200820151600381101561050757600982019060ff80198354169116179055600a610220830151910155336000526001602052610c398260406000206123c5565b60208101519060048210156105075760ff6040820151169060ff60608201511660ff6080830151166101408301519161022061018085015194015194610c826040518098612275565b602087015260408601526060850152608084015260a083015260c08201527fd3a3dfd1e8f166fc5c5eb65cbc667166b59e21f04fa1f0623e137e56164b57a460e03392a3005b634e487b7160e01b600052601160045260246000fd5b5060196109c8565b50601e6109bd565b6108b69250610d1791506101003d61010011610d26575b610d0f81836120e1565b8101906122e1565b979650945050505050906108ac565b503d610d05565b60405162461bcd60e51b815260206004820152601b60248201527f43686172616374657220616c72656164792066696e616c697a656400000000006044820152606490fd5b60405162461bcd60e51b815260206004820152601060248201526f139bdd081e5bdd5c881c995c5d595cdd60821b6044820152606490fd5b34610547576020366003190112610547576004356000526002602052604060002060405190610dd88261206f565b80546001600160a01b03168252600181015460208301908152600282015460408401526003820154909260608101929091610e169060ff16846124e7565b60048101546080830190815260058201549260a081019260ff85161515845260ff60c083019560081c161515855260068101549660e08301978852600782015490610100938481019283526101406009610e7260088701612103565b956101208401968752015491015251965197606289101561050757610ed89551151596511515905191519251945196610eb66040519a8b9a8b5260208b01906121a9565b60408901526060880152608087015260a08601528060c08601528401906121b6565b9060e08301520390f35b3461054757600036600319011261054757602060405160648152f35b34610547576000366003190112610547576020600854604051908152f35b34610547576000366003190112610547576020600754604051908152f35b3461054757602080600319360112610547576001600160a01b03610f5c6121f6565b166000526001808252604060002091604051918282855491828152019460005282600020926000905b828210610fac57610fa886610f9c818a03826120e1565b6040519182918261223a565b0390f35b84548752958601959383019390830190610f85565b3461054757600036600319011261054757610fdd60075461228f565b6007819055604051637a2c4c4d60e01b815260016004820152336024820152602091828260448160007f00000000000000000000000000000000000000000000000000000000000000006001600160a01b03165af19182156105545760009261109f575b5081600052600483526040600020336001600160601b0360a01b82541617905560058352806040600020556040518281527f730c2f96137c110c00255e57fa80f93180287c55bb072be2af660f133bdebbcf843392a3604051908152f35b9091508281813d83116110c7575b6110b781836120e1565b8101031261054757519083611041565b503d6110ad565b34610547576020366003190112610547576004356000526000602052610240602060406000206111da81549160018101546002820154906003830154600484015460058501549060068601549260ff958660078901541695600889015497600a8160098c0154169a01549b6111586040519e8f60018060a01b038416815201838360a01c16612275565b8d6040838360a81c169101528d6060838360b01c169101528d6080838360b81c169101528d60a0838360c01c169101528d60c0838360c81c1691015260d01c1660e08d01526101008c01526101208b01526101408a01526101608901526101808801526101a087015215156101c08601526101e0850152610200840190612282565b610220820152f35b3461054757604036600319011261054757005b346105475760203660031901126105475760043560005260066020526020604060002054604051908152f35b34610547576040366003190112610547576001600160a01b036112426121f6565b1660005260206003815260406000206024356000528152604060002090604051908181845491828152019360005281600020916000905b82821061129057610fa885610f9c818903826120e1565b835486529485019460019384019390910190611279565b3461054757602036600319011261054757600435600090815260026020526040902080546001600160a01b03163303611e945760058101549060ff8216611e5b576001810154916112f983151561229e565b82600052600060205260406000209161131860ff600785015416612418565b60ff6009840154166003811015610507576113339015612458565b611343606460088501541061249b565b600281015460405163103a258b60e31b8152600481019190915291610100836024817f00000000000000000000000000000000000000000000000000000000000000006001600160a01b03165afa92831561055457600090600094611e2c575b506113ad90612338565b6113b8831515612384565b60ff600383015416936113ca816124f3565b94606281101560328161050757821590819882159283611e1d575b849015611cc05750604001519060ff8216806101fe8460011b160460021490151715610cc8576101fe61141c9260011b16906123ff565b975b605f8911611cb7575b60058910611cae575b828960648a0610600014611a7d576105075790611a6f575b1561188d575050600060148560081c06600581018111610cc857600501906001604051611474816120c5565b602f81527f566963746f72792120596f752064656665617465642074686520656e656d792060208201526e30b732103337bab7321033b7b6321760891b6040820152945b6004870188905561ff001990911661ffff199091161760648706881160081b61ff0016176005860155806006860155816007860155835167ffffffffffffffff81116104f15761150b6008870154612035565b601f8111611846575b50806020601f82116001146117d9576000916117ce575b508160011b916000199060031b1c19161760088601555b6001600160ff1b038111611742576003830180548261156181836123ff565b916004870154809311600014611732575050905b555b6001600160ff1b0382116116f157600583016115948382546123ff565b90555b6115a4600884015461228f565b928360088201556064841015806116e3575b61169e575b60028101805490600a8201809211610cc8578190556001820190815490606482029082820460641483151715610cc857101561166b575b50505060ff6003611638960154169661160e60405180996121a9565b6064870610602088015260408701526060860152608085015260e060a085015260e08401906121b6565b9060c08301527fe7b114d3eb906ece11e2306ff736aeac12987943d6a6c3b0abe07482b35bef7a339280600435930390a4005b6116749061228f565b90556004810190815496600a8801809811610cc85787600380936116389a60ff96550155966115f2565b600160ff196009830154161760098201558860405160043581527f20aa2bcb062dd87aa3c26d390c616c8dd21881b25900499b485e100515eebf6d60203392a36115bb565b5060ff6007820154166115b6565b8119600181018111610cc857600584019081549081600182011160001461171d57505060009055611597565b90600161172b9201906125e4565b9055611597565b61173c92506123ff565b90611575565b8019600181018111610cc85760038401805490916001810182116117b95750506000905560ff196007840154166007840155600260ff196009850154161760098401558760405160043581527f8d57dcef6f1d4f50753137a7be8d1319de5088e1c72478d92b8b977ab9551bca60203392a3611577565b9060016117c79201906125e4565b9055611577565b90508501518a61152b565b91506008870160005260206000206000925b601f198316841061182e576001935082601f19811610611815575b5050811b016008860155611542565b87015160001960f88460031b161c191690558a80611806565b878101518255602093840193600190920191016117eb565b600887016000526020600020601f830160051c810160208410611886575b601f830160051c8201811061187a575050611514565b60008155600101611864565b5080611864565b8061050757600182148015611a5f575b156118f9575050600060328560081c06600a81018111610cc857600a019060016040516118c9816120a9565b601b81527f596f7520666f756e6420612074726561737572652063686573742100000000006020820152946114b8565b8061050757600982148015611a4f575b1561196557505060148460081c06600a81018111610cc857600a016000906001604051611935816120a9565b601b81527f596f7520666f756e642061206865616c696e6720706f74696f6e2100000000006020820152946114b8565b6105075760048114908115611a40575b50156119db576000601e8560081c06600581018111610cc8576005019060016040516119a0816120c5565b602281527f546865206d65726368616e74206761766520796f75206120676f6f64206465616020820152616c2160f01b6040820152946114b8565b600a8460081c0660058101809111610cc857600f8560081c06600581018111610cc857600501906001604051611a10816120a9565b601c81527f537563636573732120596f75206761696e656420726577617264732e000000006020820152946114b8565b60059150600790061487611975565b5050600060046007830614611909565b505060006001600783061461189d565b505060006007820615611448565b6105075790611ca0575b15611afd575050600f8460081c06600581018111610cc85760050119600181018111610cc8576001016000906001604051611ac1816120c5565b602381527f596f7520776572652064656665617465642120596f7520746f6f6b2064616d6160208201526233b29760e91b6040820152946114b8565b8061050757600282148015611c90575b15611b6f57505060148460081c06600a81018111610cc857600a0119600181018111610cc8576001016000906001604051611b47816120a9565b6015815274596f7520747269676765726564206120747261702160581b6020820152946114b8565b61050757600a8114908115611c81575b5015611c1e57600a8460081c06600581018111610cc857600a601086901c066005810110610cc85760050119600181018111610cc8576001016005600a8660101c060119600181018111610cc857600101906001604051611bdf816120c5565b602681527f596f7520776572652063757273656421204c6f7374206865616c746820616e646020820152651033b7b6321760d11b6040820152946114b8565b600a8460081c06600381018111610cc85760030119600181018111610cc8576001016000906001604051611c51816120a9565b601e81527f4661696c7572652120596f7520746f6f6b20736f6d652064616d6167652e00006020820152946114b8565b60049150600790061487611b7f565b5050600060026007830614611b0d565b505060006007820615611a87565b60059850611430565b605f9850611427565b61050757600c85148015611e0f575b84908015611dfd575b15611d135750606001519060ff8216806101fe8460011b160460021490151715610cc8576101fe611d0d9260011b16906123ff565b9761141e565b61050757600e85148015611def575b848115611ddc575b5015611d5f57608001519060ff8216806101fe8460011b160460021490151715610cc8576101fe611d0d9260011b16906123ff565b8399919961050757600485148015611dce575b848115611dbb575b50611d86575b5061141e565b60e0909991990151906101fe60ff83169260011b169180830460021490151715610cc8578181018111610cc85701978a611d80565b9050610507576006600786061484611d7a565b5060009350600b8514611d72565b9050610507576005600786061484611d2a565b506000935060038514611d22565b50610507578360036007870614611cd8565b5060009350600d8514611ccf565b506000935060078506156113e5565b6113ad9450611e4c91506101003d61010011610d2657610d0f81836120e1565b999650945050505050906113a3565b60405162461bcd60e51b8152602060048201526011602482015270105b1c9958591e4818dbdb5c1b195d1959607a1b6044820152606490fd5b60405162461bcd60e51b81526020600482015260146024820152732737ba103cb7bab91034b73a32b930b1ba34b7b760611b6044820152606490fd5b3461054757606036600319011261054757611ee96121f6565b6044359060018060a01b0316600052600360205260406000206024356000526020526040600020805482101561054757602091611f259161220c565b90549060031b1c604051908152f35b34610547576020366003190112610547576004356000526004602052602060018060a01b0360406000205416604051908152f35b34610547576020366003190112610547576004356000526002602052604060002060018060a01b0381541660018201549161202a60028201549160ff600382015416600482015460ff6005840154600685015492611ff36007870154956009611fd360088a01612103565b980154996040519c8d9c8d5260208d015260408c015260608b01906121a9565b6080890152818116151560a089015260081c16151560c087015260e0860152610100850152610160806101208601528401906121b6565b906101408301520390f35b90600182811c92168015612065575b602083101461204f57565b634e487b7160e01b600052602260045260246000fd5b91607f1691612044565b610160810190811067ffffffffffffffff8211176104f157604052565b610240810190811067ffffffffffffffff8211176104f157604052565b6040810190811067ffffffffffffffff8211176104f157604052565b6060810190811067ffffffffffffffff8211176104f157604052565b90601f8019910116810190811067ffffffffffffffff8211176104f157604052565b906040519182600082549261211784612035565b9081845260019485811690816000146121865750600114612143575b5050612141925003836120e1565b565b9093915060005260209081600020936000915b81831061216e57505061214193508201013880612133565b85548884018501529485019487945091830191612156565b91505061214194506020925060ff191682840152151560051b8201013880612133565b9060628210156105075752565b919082519283825260005b8481106121e2575050826000602080949584010152601f8019910116010190565b6020818301810151848301820152016121c1565b600435906001600160a01b038216820361054757565b80548210156122245760005260206000200190600090565b634e487b7160e01b600052603260045260246000fd5b6020908160408183019282815285518094520193019160005b828110612261575050505090565b835185529381019392810192600101612253565b9060048210156105075752565b9060038210156105075752565b6000198114610cc85760010190565b156122a557565b60405162461bcd60e51b8152602060048201526014602482015273125b9d985b1a590818da185c9858dd195c88125160621b6044820152606490fd5b91908261010091031261054757815160208301519092906001600160a01b0381168103610547579160408201519160608101519160808201519160a08101519160c082015180151581036105475760e09092015190565b1561233f57565b60405162461bcd60e51b815260206004820152601c60248201527f52616e646f6d6e657373206e6f74207965742066756c66696c6c6564000000006044820152606490fd5b1561238b57565b60405162461bcd60e51b815260206004820152601260248201527114985b991bdb5b995cdcc81b9bdd081cd95d60721b6044820152606490fd5b8054680100000000000000008110156104f1576123e79160018201815561220c565b819291549060031b91821b91600019901b1916179055565b91908201809211610cc857565b60048210156105075752565b1561241f57565b60405162461bcd60e51b815260206004820152601160248201527010da185c9858dd195c881a5cc819195859607a1b6044820152606490fd5b1561245f57565b60405162461bcd60e51b8152602060048201526014602482015273436861726163746572206e6f742061637469766560601b6044820152606490fd5b156124a257565b60405162461bcd60e51b815260206004820152601d60248201527f4368617261637465722072656163686564206d617820616374696f6e730000006044820152606490fd5b60628210156105075752565b906040516125008161208c565b8092805460018060a01b038116835260ff8161252582809460a01c166020870161240c565b818160a81c166040860152818160b01c166060860152818160b81c166080860152818160c01c1660a0860152818160c81c1660c086015260d01c1660e08401526001820154610100840152600282015461012084015260038201546101408401526004820154610160840152600582015461018084015260068201546101a08401528060078301541615156101c084015260088201546101e084015260098201541660038110156105075761022091600a916102008501520154910152565b91908203918211610cc85756fea2646970667358221220dc59a1fc15cafe33dee2018227c2ff4e441f5d98ce8306da0db7a1ada94a081d64736f6c63430008140033",
  "linkReferences": {},
  "deployedLinkReferences": {}
}