{
  "_format": "hh-sol-artifact-1",
  "contractName": "FishingGame",
  "sourceName": "contracts/base/FishingGame.sol",
  "abi": [
    {
      "inputs": [
        {
          "internalType": "address",
          "name": "_feeCollector",
          "type": "address"
        },
        {
          "internalType": "address",
          "name": "_nftContract",
          "type": "address"
        }
      ],
      "stateMutability": "nonpayable",
      "type": "constructor"
    },
    {
      "anonymous": false,
      "inputs": [
        {
          "indexed": true,
          "internalType": "address",
          "name": "player",
          "type": "address"
        },
        {
          "indexed": false,
          "internalType": "enum FishingGame.FishType",
          "name": "fishType",
          "type": "uint8"
        },
        {
          "indexed": false,
          "internalType": "uint256",
          "name": "size",
          "type": "uint256"
        },
        {
          "indexed": false,
          "internalType": "uint256",
          "name": "value",
          "type": "uint256"
        }
      ],
      "name": "FishCaught",
      "type": "event"
    },
    {
      "anonymous": false,
      "inputs": [
        {
          "indexed": true,
          "internalType": "address",
          "name": "player",
          "type": "address"
        },
        {
          "indexed": false,
          "internalType": "uint256",
          "name": "tokenId",
          "type": "uint256"
        },
        {
          "indexed": false,
          "internalType": "enum FishingGame.FishType",
          "name": "fishType",
          "type": "uint8"
        },
        {
          "indexed": false,
          "internalType": "uint256",
          "name": "size",
          "type": "uint256"
        },
        {
          "indexed": false,
          "internalType": "uint256",
          "name": "value",
          "type": "uint256"
        }
      ],
      "name": "FishNFTMinted",
      "type": "event"
    },
    {
      "anonymous": false,
      "inputs": [
        {
          "indexed": true,
          "internalType": "address",
          "name": "player",
          "type": "address"
        },
        {
          "indexed": false,
          "internalType": "uint256",
          "name": "requestId",
          "type": "uint256"
        }
      ],
      "name": "FishingTripStarted",
      "type": "event"
    },
    {
      "anonymous": false,
      "inputs": [
        {
          "indexed": true,
          "internalType": "address",
          "name": "oldContract",
          "type": "address"
        },
        {
          "indexed": true,
          "internalType": "address",
          "name": "newContract",
          "type": "address"
        }
      ],
      "name": "NFTContractUpdated",
      "type": "event"
    },
    {
      "anonymous": false,
      "inputs": [
        {
          "indexed": true,
          "internalType": "address",
          "name": "player",
          "type": "address"
        },
        {
          "indexed": false,
          "internalType": "enum FishingGame.FishType",
          "name": "fishType",
          "type": "uint8"
        },
        {
          "indexed": false,
          "internalType": "string",
          "name": "reason",
          "type": "string"
        }
      ],
      "name": "NFTMintingFailed",
      "type": "event"
    },
    {
      "anonymous": false,
      "inputs": [
        {
          "indexed": false,
          "internalType": "uint256",
          "name": "requestId",
          "type": "uint256"
        },
        {
          "indexed": false,
          "internalType": "bytes32",
          "name": "randomness",
          "type": "bytes32"
        }
      ],
      "name": "RandomnessReceived",
      "type": "event"
    },
    {
      "inputs": [
        {
          "internalType": "uint256",
          "name": "_requestId",
          "type": "uint256"
        }
      ],
      "name": "catchFish",
      "outputs": [],
      "stateMutability": "nonpayable",
      "type": "function"
    },
    {
      "inputs": [],
      "name": "feeCollector",
      "outputs": [
        {
          "internalType": "address",
          "name": "",
          "type": "address"
        }
      ],
      "stateMutability": "view",
      "type": "function"
    },
    {
      "inputs": [
        {
          "internalType": "uint256",
          "name": "",
          "type": "uint256"
        }
      ],
      "name": "fishNames",
      "outputs": [
        {
          "internalType": "string",
          "name": "",
          "type": "string"
        }
      ],
      "stateMutability": "view",
      "type": "function"
    },
    {
      "inputs": [
        {
          "internalType": "uint256",
          "name": "",
          "type": "uint256"
        }
      ],
      "name": "fishWeights",
      "outputs": [
        {
          "internalType": "uint256",
          "name": "",
          "type": "uint256"
        }
      ],
      "stateMutability": "view",
      "type": "function"
    },
    {
      "inputs": [
        {
          "internalType": "enum FishingGame.FishType",
          "name": "fishType",
          "type": "uint8"
        }
      ],
      "name": "getFishInfo",
      "outputs": [
        {
          "internalType": "string",
          "name": "name",
          "type": "string"
        },
        {
          "internalType": "uint256",
          "name": "weight",
          "type": "uint256"
        },
        {
          "internalType": "uint256",
          "name": "baseValue",
          "type": "uint256"
        }
      ],
      "stateMutability": "view",
      "type": "function"
    },
    {
      "inputs": [
        {
          "internalType": "address",
          "name": "player",
          "type": "address"
        },
        {
          "internalType": "uint256",
          "name": "index",
          "type": "uint256"
        }
      ],
      "name": "getPlayerCatch",
      "outputs": [
        {
          "internalType": "enum FishingGame.FishType",
          "name": "fishType",
          "type": "uint8"
        },
        {
          "internalType": "uint256",
          "name": "size",
          "type": "uint256"
        },
        {
          "internalType": "uint256",
          "name": "value",
          "type": "uint256"
        },
        {
          "internalType": "uint256",
          "name": "timestamp",
          "type": "uint256"
        },
        {
          "internalType": "string",
          "name": "fishName",
          "type": "string"
        }
      ],
      "stateMutability": "view",
      "type": "function"
    },
    {
      "inputs": [
        {
          "internalType": "address",
          "name": "player",
          "type": "address"
        }
      ],
      "name": "getPlayerCatchCount",
      "outputs": [
        {
          "internalType": "uint256",
          "name": "",
          "type": "uint256"
        }
      ],
      "stateMutability": "view",
      "type": "function"
    },
    {
      "inputs": [],
      "name": "goFishing",
      "outputs": [
        {
          "internalType": "uint256",
          "name": "",
          "type": "uint256"
        }
      ],
      "stateMutability": "nonpayable",
      "type": "function"
    },
    {
      "inputs": [],
      "name": "nftContract",
      "outputs": [
        {
          "internalType": "contract IFishingGameNFT",
          "name": "",
          "type": "address"
        }
      ],
      "stateMutability": "view",
      "type": "function"
    },
    {
      "inputs": [],
      "name": "owner",
      "outputs": [
        {
          "internalType": "address",
          "name": "",
          "type": "address"
        }
      ],
      "stateMutability": "view",
      "type": "function"
    },
    {
      "inputs": [
        {
          "internalType": "uint256",
          "name": "",
          "type": "uint256"
        }
      ],
      "name": "pendingRequests",
      "outputs": [
        {
          "internalType": "address",
          "name": "",
          "type": "address"
        }
      ],
      "stateMutability": "view",
      "type": "function"
    },
    {
      "inputs": [
        {
          "internalType": "address",
          "name": "",
          "type": "address"
        },
        {
          "internalType": "uint256",
          "name": "",
          "type": "uint256"
        }
      ],
      "name": "playerCatches",
      "outputs": [
        {
          "internalType": "enum FishingGame.FishType",
          "name": "fishType",
          "type": "uint8"
        },
        {
          "internalType": "uint256",
          "name": "size",
          "type": "uint256"
        },
        {
          "internalType": "uint256",
          "name": "value",
          "type": "uint256"
        },
        {
          "internalType": "uint256",
          "name": "timestamp",
          "type": "uint256"
        }
      ],
      "stateMutability": "view",
      "type": "function"
    },
    {
      "inputs": [
        {
          "internalType": "address",
          "name": "",
          "type": "address"
        }
      ],
      "name": "playerStats",
      "outputs": [
        {
          "internalType": "uint256",
          "name": "totalCatches",
          "type": "uint256"
        },
        {
          "internalType": "uint256",
          "name": "totalValue",
          "type": "uint256"
        },
        {
          "internalType": "enum FishingGame.FishType",
          "name": "rarestCatch",
          "type": "uint8"
        },
        {
          "internalType": "uint256",
          "name": "lastFishingTime",
          "type": "uint256"
        }
      ],
      "stateMutability": "view",
      "type": "function"
    },
    {
      "inputs": [
        {
          "internalType": "uint256",
          "name": "_requestId",
          "type": "uint256"
        },
        {
          "internalType": "bytes32",
          "name": "_randomness",
          "type": "bytes32"
        }
      ],
      "name": "receiveRandomness",
      "outputs": [],
      "stateMutability": "nonpayable",
      "type": "function"
    },
    {
      "inputs": [
        {
          "internalType": "uint256",
          "name": "requestId",
          "type": "uint256"
        }
      ],
      "name": "registerForFishing",
      "outputs": [],
      "stateMutability": "nonpayable",
      "type": "function"
    },
    {
      "inputs": [
        {
          "internalType": "address",
          "name": "_nftContract",
          "type": "address"
        }
      ],
      "name": "setNFTContract",
      "outputs": [],
      "stateMutability": "nonpayable",
      "type": "function"
    }
  ],
  "bytecode": "0x60c034620003e7576200196f90601f38839003908101601f19168201906001600160401b03821183831017620003d15780839160409586948552833981010312620003e7576200005d602062000055836200042c565b92016200042c565b62000067620003ec565b620000716200040c565b600881526708eded8c8ccd2e6d60c31b60208201528152620000926200040c565b6005815264151c9bdd5d60da1b60208201526020820152620000b36200040c565b600681526529b0b636b7b760d11b602082015284820152620000d46200040c565b600481526354756e6160e01b60208201526060820152620000f46200040c565b6005815264536861726b60d81b60208201526080820152620001156200040c565b60058152645768616c6560d81b602082015260a08201526004906000905b60068210620002685750505062000149620003ec565b60328152601e6020820152600f8482015260046060820152600190816080820152600060a082015260005b600681106200025057506001600160a01b03939150508083161562000201576080523360a0521680620001e6575b505161152d9081620004428239608051818181610109015281816102780152818161065a015281816109f50152610f1c015260a0518181816102f901526104330152f35b600080546001600160a01b03191691909117905538620001a2565b835162461bcd60e51b815260206004820152602260248201527f46697368696e6747616d653a20696e76616c69642066656520636f6c6c65637460448201526137b960f11b6064820152608490fd5b8290602060ff84511693019281600a01550162000174565b80518051906001600160401b038211620003d1578454600181811c91168015620003c6575b6020821014620003b057601f811162000367575b50602090601f8311600114620002f2579282600194936020938695600092620002e6575b5050600019600383901b1c191690841b1786555b0193019101909162000133565b015190503880620002c5565b908560005260206000209160005b601f19851681106200034e575083602093600196938796938794601f1981161062000334575b505050811b018655620002d9565b015160001960f88460031b161c1916905538808062000326565b9192602060018192868501518155019401920162000300565b856000526020600020601f840160051c810160208510620003a8575b601f830160051c820181106200039b575050620002a1565b6000815560010162000383565b508062000383565b634e487b7160e01b600052602260045260246000fd5b90607f16906200028d565b634e487b7160e01b600052604160045260246000fd5b600080fd5b6040519060c082016001600160401b03811183821017620003d157604052565b60408051919082016001600160401b03811183821017620003d157604052565b51906001600160a01b0382168203620003e75756fe608060408181526004908136101561001657600080fd5b600092833560e01c908162b98363146109b857508063030c800a14610980578063067014351461096057806323668c2f146108e45780633c652a9a146108b1578063431ac65714610636578063489d7bc4146105c657806362fb9396146104625780638da5cb5b1461041e5780639b585e11146103c7578063a7ccabdf146102d3578063be2cb44f146102a7578063c415b95c14610263578063cdafbbb6146101fe578063d56d229d146101d25763df06dda6146100d357600080fd5b346101bb57826003193601126101bb578051637a2c4c4d60e01b81526001928101929092523360248301526020928383604481847f00000000000000000000000000000000000000000000000000000000000000006001600160a01b03165af19283156101c6578193610193575b5080838392526001855220336bffffffffffffffffffffffff60a01b82541617905580518281527f4b9c8803bd99eb5d0339b8611575373dff20e4fcd2ababfc6903a6e1a21c5c8b843392a251908152f35b9092508381813d83116101bf575b6101ab8183610d72565b810103126101bb57519181610141565b8280fd5b503d6101a1565b509051903d90823e3d90fd5b8382346101fa57816003193601126101fa57905490516001600160a01b039091168152602090f35b5080fd5b8382346101fa5760203660031901126101fa5760809181906001600160a01b03610226610bd3565b1681526002602052209061025c825492600181015492600360ff6002840154169201549381519586526020860152840190610c20565b6060820152f35b8382346101fa57816003193601126101fa57517f00000000000000000000000000000000000000000000000000000000000000006001600160a01b03168152602090f35b5090346101bb5760203660031901126101bb573560068110156101bb5760209250600a01549051908152f35b50346101bb5760203660031901126101bb576102ed610bd3565b916001600160a01b03917f000000000000000000000000000000000000000000000000000000000000000083163303610378575050825491811691826103645783546001600160a01b03191684555b167fab9636faa03b42a52a353eb86f070f1ac15b69f0bc419fba63d07b5d996edad78380a380f35b6001600160a01b031981168317845561033c565b906020608492519162461bcd60e51b83528201526024808201527f46697368696e6747616d653a2063616c6c6572206973206e6f7420746865206f6044820152633bb732b960e11b6064820152fd5b508290346101fa5760203660031901126101fa57823591600683101561041b5750610405610417936103fe83518095819301610c83565b0383610d72565b51918291602083526020830190610c43565b0390f35b80fd5b8382346101fa57816003193601126101fa57517f00000000000000000000000000000000000000000000000000000000000000006001600160a01b03168152602090f35b50823461041b578160031936011261041b5761047c610bd3565b6001600160a01b031680825260036020908152838320549093916024359182101561058557906104b491845260038552828420610bee565b50928151916104c283610d40565b6104d060ff865416846110fa565b6001850154948284019586526003600282015491838601928352015492606085019384528451966006881015610572575191519351945195600687101561055f57509082916105386105439961053161041799989796518099819301610c83565b0387610d72565b825198898099610c20565b870152850152606084015260a0608084015260a0830190610c43565b634e487b7160e01b815260218952602490fd5b634e487b7160e01b875260218952602487fd5b606486868086519262461bcd60e51b845283015260248201527f46697368696e6747616d653a20696e76616c696420636174636820696e6465786044820152fd5b50346101bb5760203660031901126101bb57813591600683101561063257610625935082600a0154916106126105fb85611498565b9261060b83518097819301610c83565b0385610d72565b8051948594606086526060860190610c43565b9260208501528301520390f35b8380fd5b5090346101bb57816003193601126101bb5780359060248035916001600160a01b037f000000000000000000000000000000000000000000000000000000000000000081163381900361085f578651809163103a258b60e31b8252878583015281866101009384935afa9182156108555787908a908b938c95610811575b5050906106c19114610deb565b156107c457848103610782576106d8901515610ea6565b8487526001602052858720541691821561074057505090610726917fc94ecf1b3a173330986d09aaa93a881f4f6aa8b30644018360487ff4342b12c7858051868152846020820152a161111e565b82526001602052812080546001600160a01b031916905580f35b90601f606492602088519362461bcd60e51b85528401528201527f46697368696e6747616d653a206e6f2070656e64696e672072657175657374006044820152fd5b865162461bcd60e51b81526020818501819052818601527f46697368696e6747616d653a2072616e646f6d6e657373206d69736d617463686044820152606490fd5b865162461bcd60e51b81526020818501526022818601527f46697368696e6747616d653a2072657175657374206e6f742066756c66696c6c604482015261195960f21b6064820152608490fd5b61083a9395506106c1945080919250903d1061084e575b6108328183610d72565b810190610d94565b9890979096955093503892506106b4915050565b503d610828565b88513d8b823e3d90fd5b865162461bcd60e51b81526020818501526027818601527f46697368696e6747616d653a206f6e6c7920466565436f6c6c6563746f722063604482015266185b8818d85b1b60ca1b6064820152608490fd5b5090346101bb5760203660031901126101bb5735825260016020908152918190205490516001600160a01b039091168152f35b8382346101fa57806003193601126101fa576108fe610bd3565b6001600160a01b0316825260036020528082208054602435939084101561041b575060809261092c91610bee565b509060ff82541691600181015491600360028301549201549261095182518096610c20565b60208501528301526060820152f35b5050346101fa5760203660031901126101fa5761097d9035610ef2565b80f35b8382346101fa5760203660031901126101fa5760209181906001600160a01b036109a8610bd3565b1681526003845220549051908152f35b92919050346106325760209182600319360112610bcf5763103a258b60e31b84528035848201819052936001600160a01b039061010080826024817f000000000000000000000000000000000000000000000000000000000000000087165afa918215610bc557879089908a938b95610b91575b505090610a399114610deb565b8233911603610b3757610ae657848652600184528286205416610aa55750907f4b9c8803bd99eb5d0339b8611575373dff20e4fcd2ababfc6903a6e1a21c5c8b9183855260018252808520336bffffffffffffffffffffffff60a01b825416179055519283523392a280f35b82606492519162461bcd60e51b8352820152601f60248201527f46697368696e6747616d653a20616c72656164792072656769737465726564006044820152fd5b5082608492519162461bcd60e51b8352820152602660248201527f46697368696e6747616d653a207265717565737420616c72656164792066756c604482015265199a5b1b195960d21b6064820152fd5b835162461bcd60e51b8152808401869052602e60248201527f46697368696e6747616d653a207265717565737420646f6573206e6f7420626560448201526d3637b733903a379039b2b73232b960911b6064820152608490fd5b610bb1939550610a39945080919250903d1061084e576108328183610d72565b509695935050505093909293909138610a2c565b85513d8a823e3d90fd5b8480fd5b600435906001600160a01b0382168203610be957565b600080fd5b8054821015610c0a5760005260206000209060021b0190600090565b634e487b7160e01b600052603260045260246000fd5b906006821015610c2d5752565b634e487b7160e01b600052602160045260246000fd5b919082519283825260005b848110610c6f575050826000602080949584010152601f8019910116010190565b602081830181015184830182015201610c4e565b80546000939260018083169383821c938515610d36575b6020958686108114610d2057858552908115610d015750600114610cc0575b5050505050565b90939495506000929192528360002092846000945b838610610ced57505050500101903880808080610cb9565b805485870183015294019385908201610cd5565b60ff19168685015250505090151560051b010191503880808080610cb9565b634e487b7160e01b600052602260045260246000fd5b93607f1693610c9a565b6080810190811067ffffffffffffffff821117610d5c57604052565b634e487b7160e01b600052604160045260246000fd5b90601f8019910116810190811067ffffffffffffffff821117610d5c57604052565b919082610100910312610be957815160208301519092906001600160a01b0381168103610be9579160408201519160608101519160808201519160a08101519160c08201518015158103610be95760e09092015190565b15610df257565b60405162461bcd60e51b815260206004820152602360248201527f46697368696e6747616d653a207265717565737420646f6573206e6f742065786044820152621a5cdd60ea1b6064820152608490fd5b15610e4a57565b60405162461bcd60e51b815260206004820152602e60248201527f46697368696e6747616d653a207265717565737420646f6573206e6f7420626560448201526d3637b733903a379031b0b63632b960911b6064820152608490fd5b15610ead57565b60405162461bcd60e51b815260206004820152601f60248201527f46697368696e6747616d653a2072616e646f6d6e657373206e6f7420736574006044820152606490fd5b6040805163103a258b60e31b8152600481018390529091906001600160a01b0361010080836024817f000000000000000000000000000000000000000000000000000000000000000086165afa9283156110aa57846000809281948297611070575b5050610f6e9291610f659114610deb565b83163314610e43565b15610ff757610f7e821515610ea6565b826000526001602052836000205416908115610ff157610fd691610fa3338214610e43565b7fc94ecf1b3a173330986d09aaa93a881f4f6aa8b30644018360487ff4342b12c7858051868152846020820152a161111e565b600090815260016020522080546001600160a01b0319169055565b50505050565b835162461bcd60e51b815260206004820152604660248201527f46697368696e6747616d653a2072616e646f6d6e657373206e6f74207965742060448201527f66756c66696c6c6564202d207761697420666f722073657276657220746f2070606482015265726f6365737360d01b608482015260a490fd5b611095939750610f659550610f6e945080919250903d1061084e576108328183610d72565b9a909895975095948694509250610f54915050565b85513d6000823e3d90fd5b60001981146110c45760010190565b634e487b7160e01b600052601160045260246000fd5b919082018092116110c457565b818102929181159184041417156110c457565b6006821015610c2d5752565b906006811015610c2d5760ff80198354169116179055565b906000908160648206815b60068310611465575b50505060fb810660320190816032116110c457606461117161115385611498565b60968511156114585761116c8560ff60025b16926110e7565b6110e7565b049160409182519561118287610d40565b61118c86886110fa565b6020918288019184835285890198878a526060810199428b5260018060a01b038093169a8b60005260028752886000206111c681546110b5565b8155600181016111d78c82546110da565b905542600382015560068c1015610c2d5760020160ff8154166006811015610c2d578c908111611448575b50508b6000526003875288600020805468010000000000000000811015610d5c5761123291600182018155610bee565b9390936114325751916006831015610c2d578c9661125260039486611106565b5160018501555160028401555191015560005416806112ac575b50505091606093917f0f82150b86793e3b65fd64c7e2e93506785632590607b4f6348af9aefae6ee6c95936112a383518096610c20565b840152820152a2565b6112f684918960008a8a51968795869485936302ca841f60e31b85528b600486015260ff821660248601528d6044860152606485015260c0608485015260c4840190600401610c83565b9060a483015203925af1600091816113ff575b50917f0f82150b86793e3b65fd64c7e2e93506785632590607b4f6348af9aefae6ee6c979593916060979593156000146113bb57507f5412045fe2d7e54db3ab7112f5263fcf36d50d2c26ad9ffbfd144ad5eb0ef86660a0855161136d818a610c20565b86858201526027878201527f4e4654206d696e74696e67206661696c6564202d20636865636b204e465420638a820152661bdb9d1c9858dd60ca1b6080820152a25b9193958791939561126c565b60807e729266099a57c9ce31c940b8df2dadadf5ff4ad25a76badc4c114b5808c4499186519081526113ef8582018a610c20565b8587820152878a820152a26113af565b919092508382813d831161142b575b6114188183610d72565b8101031261041b57505187916060611309565b503d61140e565b634e487b7160e01b600052600060045260246000fd5b61145191611106565b388b611202565b61116c8560ff6001611165565b600a830154611473916110da565b9182821061148a57611484906110b5565b91611129565b929350505090388080611132565b6006811015610c2d5780156114f157600181146114eb57600281146114e557600381146114df57600481146114d9576005146114d357600190565b6103e890565b5060c890565b50603290565b50600f90565b50600590565b5060019056fea2646970667358221220fab7c4ca713a0e8484903493a8ce48ece6c73c5cdb8696db37664f7090d3a86064736f6c63430008140033",
  "linkReferences": {},
  "deployedLinkReferences": {}
}