{
  "_format": "hh-sol-artifact-1",
  "contractName": "RouletteGame",
  "sourceName": "contracts/examples/RouletteGame.sol",
  "abi": [
    {
      "inputs": [
        {
          "internalType": "address",
          "name": "_feeCollector",
          "type": "address"
        }
      ],
      "stateMutability": "nonpayable",
      "type": "constructor"
    },
    {
      "anonymous": false,
      "inputs": [
        {
          "indexed": true,
          "internalType": "uint256",
          "name": "spinId",
          "type": "uint256"
        },
        {
          "indexed": true,
          "internalType": "address",
          "name": "player",
          "type": "address"
        },
        {
          "indexed": false,
          "internalType": "uint8",
          "name": "result",
          "type": "uint8"
        },
        {
          "indexed": false,
          "internalType": "string",
          "name": "color",
          "type": "string"
        },
        {
          "indexed": false,
          "internalType": "bytes32",
          "name": "vrfSeed",
          "type": "bytes32"
        }
      ],
      "name": "SpinCompleted",
      "type": "event"
    },
    {
      "anonymous": false,
      "inputs": [
        {
          "indexed": true,
          "internalType": "address",
          "name": "player",
          "type": "address"
        },
        {
          "indexed": true,
          "internalType": "uint256",
          "name": "spinId",
          "type": "uint256"
        },
        {
          "indexed": false,
          "internalType": "uint256",
          "name": "requestId",
          "type": "uint256"
        }
      ],
      "name": "SpinRequested",
      "type": "event"
    },
    {
      "inputs": [],
      "name": "MAX_RECENT_SPINS",
      "outputs": [
        {
          "internalType": "uint256",
          "name": "",
          "type": "uint256"
        }
      ],
      "stateMutability": "view",
      "type": "function"
    },
    {
      "inputs": [],
      "name": "WHEEL_SIZE",
      "outputs": [
        {
          "internalType": "uint256",
          "name": "",
          "type": "uint256"
        }
      ],
      "stateMutability": "view",
      "type": "function"
    },
    {
      "inputs": [
        {
          "internalType": "string",
          "name": "",
          "type": "string"
        }
      ],
      "name": "colorFrequency",
      "outputs": [
        {
          "internalType": "uint256",
          "name": "",
          "type": "uint256"
        }
      ],
      "stateMutability": "view",
      "type": "function"
    },
    {
      "inputs": [],
      "name": "feeCollector",
      "outputs": [
        {
          "internalType": "address",
          "name": "",
          "type": "address"
        }
      ],
      "stateMutability": "view",
      "type": "function"
    },
    {
      "inputs": [
        {
          "internalType": "address",
          "name": "player",
          "type": "address"
        }
      ],
      "name": "getPlayerSpins",
      "outputs": [
        {
          "internalType": "uint256[]",
          "name": "",
          "type": "uint256[]"
        }
      ],
      "stateMutability": "view",
      "type": "function"
    },
    {
      "inputs": [
        {
          "internalType": "uint256",
          "name": "count",
          "type": "uint256"
        }
      ],
      "name": "getRecentSpins",
      "outputs": [
        {
          "internalType": "uint256[]",
          "name": "",
          "type": "uint256[]"
        }
      ],
      "stateMutability": "view",
      "type": "function"
    },
    {
      "inputs": [
        {
          "internalType": "uint256",
          "name": "_spinId",
          "type": "uint256"
        }
      ],
      "name": "getSpin",
      "outputs": [
        {
          "internalType": "address",
          "name": "player",
          "type": "address"
        },
        {
          "internalType": "uint8",
          "name": "result",
          "type": "uint8"
        },
        {
          "internalType": "string",
          "name": "color",
          "type": "string"
        },
        {
          "internalType": "bool",
          "name": "isEven",
          "type": "bool"
        },
        {
          "internalType": "bytes32",
          "name": "vrfSeed",
          "type": "bytes32"
        },
        {
          "internalType": "uint256",
          "name": "timestamp",
          "type": "uint256"
        }
      ],
      "stateMutability": "view",
      "type": "function"
    },
    {
      "inputs": [],
      "name": "getStatistics",
      "outputs": [
        {
          "internalType": "uint256",
          "name": "totalSpins",
          "type": "uint256"
        },
        {
          "internalType": "uint256",
          "name": "redCount",
          "type": "uint256"
        },
        {
          "internalType": "uint256",
          "name": "blackCount",
          "type": "uint256"
        },
        {
          "internalType": "uint256",
          "name": "greenCount",
          "type": "uint256"
        }
      ],
      "stateMutability": "view",
      "type": "function"
    },
    {
      "inputs": [
        {
          "internalType": "uint8",
          "name": "",
          "type": "uint8"
        }
      ],
      "name": "numberFrequency",
      "outputs": [
        {
          "internalType": "uint256",
          "name": "",
          "type": "uint256"
        }
      ],
      "stateMutability": "view",
      "type": "function"
    },
    {
      "inputs": [
        {
          "internalType": "address",
          "name": "",
          "type": "address"
        },
        {
          "internalType": "uint256",
          "name": "",
          "type": "uint256"
        }
      ],
      "name": "playerSpins",
      "outputs": [
        {
          "internalType": "uint256",
          "name": "",
          "type": "uint256"
        }
      ],
      "stateMutability": "view",
      "type": "function"
    },
    {
      "inputs": [
        {
          "internalType": "uint256",
          "name": "_requestId",
          "type": "uint256"
        },
        {
          "internalType": "bytes32",
          "name": "_randomness",
          "type": "bytes32"
        }
      ],
      "name": "receiveRandomness",
      "outputs": [],
      "stateMutability": "nonpayable",
      "type": "function"
    },
    {
      "inputs": [
        {
          "internalType": "uint256",
          "name": "",
          "type": "uint256"
        }
      ],
      "name": "recentSpinIds",
      "outputs": [
        {
          "internalType": "uint256",
          "name": "",
          "type": "uint256"
        }
      ],
      "stateMutability": "view",
      "type": "function"
    },
    {
      "inputs": [
        {
          "internalType": "uint256",
          "name": "",
          "type": "uint256"
        }
      ],
      "name": "requestIdToSpinId",
      "outputs": [
        {
          "internalType": "uint256",
          "name": "",
          "type": "uint256"
        }
      ],
      "stateMutability": "view",
      "type": "function"
    },
    {
      "inputs": [],
      "name": "requestSpin",
      "outputs": [
        {
          "internalType": "uint256",
          "name": "",
          "type": "uint256"
        }
      ],
      "stateMutability": "nonpayable",
      "type": "function"
    },
    {
      "inputs": [],
      "name": "spinCounter",
      "outputs": [
        {
          "internalType": "uint256",
          "name": "",
          "type": "uint256"
        }
      ],
      "stateMutability": "view",
      "type": "function"
    },
    {
      "inputs": [
        {
          "internalType": "uint256",
          "name": "",
          "type": "uint256"
        }
      ],
      "name": "spins",
      "outputs": [
        {
          "internalType": "uint256",
          "name": "spinId",
          "type": "uint256"
        },
        {
          "internalType": "address",
          "name": "player",
          "type": "address"
        },
        {
          "internalType": "uint256",
          "name": "requestId",
          "type": "uint256"
        },
        {
          "internalType": "bytes32",
          "name": "vrfSeed",
          "type": "bytes32"
        },
        {
          "internalType": "uint8",
          "name": "result",
          "type": "uint8"
        },
        {
          "internalType": "string",
          "name": "color",
          "type": "string"
        },
        {
          "internalType": "bool",
          "name": "isEven",
          "type": "bool"
        },
        {
          "internalType": "uint256",
          "name": "timestamp",
          "type": "uint256"
        }
      ],
      "stateMutability": "view",
      "type": "function"
    }
  ],
  "bytecode": "0x60a0346100c357601f6112dd38819003918201601f19168301916001600160401b038311848410176100c8578084926020946040528339810103126100c357516001600160a01b0381168082036100c3571561007e576080526040516111fe90816100df82396080518181816101c701528181610344015261083c0152f35b60405162461bcd60e51b815260206004820152601560248201527f496e76616c69642066656520636f6c6c6563746f7200000000000000000000006044820152606490fd5b600080fd5b634e487b7160e01b600052604160045260246000fdfe608080604052600436101561001357600080fd5b60003560e01c9081630885857814610da65750806317adaa0314610d4e578063372d6b2714610cd9578063379930f714610cbd578063431ac6571461081e5780638315c2641461077f57806385e58a241461074857806396d0e0a81461066d5780639a18142214610651578063a7d19f2314610301578063a8a17bad146102d5578063bd8d7300146101f6578063c415b95c146101b1578063c4df7b8c1461012a578063d4bcc0e11461010c5763f43634ae146100cf57600080fd5b3461010757602036600319011261010757600435600354811015610107576100f8602091610ed5565b90549060031b1c604051908152f35b600080fd5b34610107576000366003190112610107576020600254604051908152f35b3461010757602080600319360112610107576001600160a01b0361014c610ebf565b166000526001808252604060002091604051918282855491828152019460005282600020926000905b82821061019c576101988661018c818a0382610e7a565b60405191829182611029565b0390f35b84548752958601959383019390830190610175565b34610107576000366003190112610107576040517f00000000000000000000000000000000000000000000000000000000000000006001600160a01b03168152602090f35b3461010757602080600319360112610107576004356003918254928383116102cd575b61022283611073565b936102306040519586610e7a565b838552601f1961023f85611073565b0136848701378381039081116102b75760005b84811061026757604051806101988882611029565b8082018083116102b75761027a90610ed5565b905490841b1c9086518110156102a15761029c91858260051b89010152611064565b610252565b634e487b7160e01b600052603260045260246000fd5b634e487b7160e01b600052601160045260246000fd5b839250610219565b346101075760203660031901126101075760043560005260066020526020604060002054604051908152f35b3461010757600036600319011261010757604051637a2c4c4d60e01b81526001600482018190523360248301526020916001600160a01b039190838160448160007f000000000000000000000000000000000000000000000000000000000000000088165af190811561064557600091610618575b50610382600254611064565b92836002556040519061039482610e41565b84825285820133815260408301908482526060840190600082526080850160ff8152604051928a84019467ffffffffffffffff938587108588111761053c578b978d976040526000875260a08a01968752600060c08b0198818a5260e08c019a428c52825252604060002099518a558b8a019151166bffffffffffffffffffffffff60a01b82541617905551600288015551600387015560ff6004870191511660ff19825416179055600585019151805191821161053c576104568354610f24565b601f81116105cf575b508990601f831160011461055d5791806104ad94926007979694600092610552575b5050600019600383901b1c191690891b1790555b511515600685019060ff801983541691151516179055565b51910155806000526006845282604060002055336000528184526040600020805490600160401b82101561053c576104f082869592869361050995018155610f0c565b90919082549060031b91821b91600019901b1916179055565b6040519081527f13613ea75c82ae18e644761ef86de8340d8981450de88e1409cb61969f963e7a843392a3604051908152f35b634e487b7160e01b600052604160045260246000fd5b015190508c80610481565b889291601f19831691856000528c600020928d6000905b8282106105b85750509160079897959391856104ad9896941061059f575b505050811b019055610495565b015160001960f88460031b161c191690558c8080610592565b8385015186558d979095019493840193018e610574565b836000528a600020601f840160051c8101918c851061060e575b601f0160051c019089905b82811061060257505061045f565b600081550189906105f4565b90915081906105e9565b90508381813d831161063e575b61062f8183610e7a565b81010312610107575184610376565b503d610625565b6040513d6000823e3d90fd5b3461010757600036600319011261010757602060405160328152f35b34610107576020366003190112610107576004356000526000602052604060002060405161069a81610e41565b8154815260018060a01b039160e08360018301541692602081019384526002830154604082015261073460ff600385015496606084019788528160048701541696608085019788526106ee60058801610f5e565b948560a082015260078460068a0154161515988960c08401520154968791015251169551169551916040519687968752602087015260c0604087015260c0860190611004565b926060850152608084015260a08301520390f35b346101075760203660031901126101075760043560ff81168091036101075760005260046020526020604060002054604051908152f35b346101075760203660031901126101075760043560005260006020526040600020805460018060a01b0360018301541691600281015461080d600383015460ff6004850154166107d160058601610f5e565b91600760ff60068801541696015494604051988998895260208901526040880152606087015260808601526101008060a0870152850190611004565b91151560c084015260e08301520390f35b34610107576040366003190112610107576001600160a01b036004357f000000000000000000000000000000000000000000000000000000000000000082163303610c7857806000526006602052604060002054908115610c3357816000526000602052604060002090600482019384549160ff80841603610bf557600284015403610bba57602560243506916108b760ff841661108b565b9560ff841615159182610bae575b602435600387015560ff191660ff8516179055855167ffffffffffffffff811161053c576108f66005860154610f24565b601f8111610b63575b506020601f8211600114610af25790806109489392600091610ae7575b508160011b916000199060031b1c19161760058601555b600685019060ff801983541691151516179055565b60ff8216600052600460205260406000206109638154611064565b9055604051602081875161097a8183858c01610e9c565b8101600581520301902061098e8154611064565b905560035492600160401b84101561053c576109b5856104f0600196878101600355610ed5565b603260035411610a15575b60ff92917f3e53f687adf2573b43baabf840e5033808ffd92682a8a53ddd3db4642d071a1f94610a089201541695604051938493168352606060208401526060830190611004565b60243560408301520390a3005b91906000845b610a96575b50600354908115610a80577f3e53f687adf2573b43baabf840e5033808ffd92682a8a53ddd3db4642d071a1f9460ff94610a089360001990810190610a6482610ed5565b909182549160031b1b19169055600355925094509192506109c0565b634e487b7160e01b600052603160045260246000fd5b60035460001981019081116102b757811015610ae2578481018082116102b7578591610ad7610ac7610adc93610ed5565b90549060031b1c6104f083610ed5565b611064565b90610a1b565b610a20565b90508801518961091c565b6005860160005260206000209060005b601f1984168110610b4b575091600191610948949382601f19811610610b32575b5050811b016005860155610933565b8a015160001960f88460031b161c191690558980610b23565b9091602060018192858d015181550193019101610b02565b600586016000526020600020601f830160051c81019160208410610ba4575b601f0160051c01905b818110610b9857506108ff565b60008155600101610b8b565b9091508190610b82565b600185161592506108c5565b60405162461bcd60e51b81526020600482015260136024820152720a4cae2eacae6e840928840dad2e6dac2e8c6d606b1b6044820152606490fd5b60405162461bcd60e51b815260206004820152601660248201527514dc1a5b88185b1c9958591e4818dbdb5c1b195d195960521b6044820152606490fd5b60405162461bcd60e51b815260206004820152601a60248201527f5370696e206e6f7420666f756e6420666f7220726571756573740000000000006044820152606490fd5b60405162461bcd60e51b815260206004820152601a60248201527f4f6e6c7920466565436f6c6c6563746f722063616e2063616c6c0000000000006044820152606490fd5b3461010757600036600319011261010757602060405160258152f35b346101075760003660031901126101075760806002546023604051621c995960ea1b8152600560038201522054602560405164626c61636b60d81b8152600580820152205460256040516433b932b2b760d91b8152600580820152205491604051938452602084015260408301526060820152f35b3461010757604036600319011261010757610d67610ebf565b6001600160a01b031660009081526001602052604090208054602435919082101561010757602091610d9891610f0c565b90546040519160031b1c8152f35b3461010757602090816003193601126101075760043567ffffffffffffffff91828211610107573660238301121561010757816004013592831161053c57610df7601f8401601f1916850182610e7a565b8281528381019036602485850101116101075760008585610e2e966024839701863783010152604051938492839251928391610e9c565b8101600581520301902054604051908152f35b610100810190811067ffffffffffffffff82111761053c57604052565b6040810190811067ffffffffffffffff82111761053c57604052565b90601f8019910116810190811067ffffffffffffffff82111761053c57604052565b60005b838110610eaf5750506000910152565b8181015183820152602001610e9f565b600435906001600160a01b038216820361010757565b6003548110156102a15760036000527fc2575a0e9e593c00f959f8c92f12db2869c3395a3b0502d05e2516446f71f85b0190600090565b80548210156102a15760005260206000200190600090565b90600182811c92168015610f54575b6020831014610f3e57565b634e487b7160e01b600052602260045260246000fd5b91607f1691610f33565b9060405191826000825492610f7284610f24565b908184526001948581169081600014610fe15750600114610f9e575b5050610f9c92500383610e7a565b565b9093915060005260209081600020936000915b818310610fc9575050610f9c93508201013880610f8e565b85548884018501529485019487945091830191610fb1565b915050610f9c94506020925060ff191682840152151560051b8201013880610f8e565b9060209161101d81518092818552858086019101610e9c565b601f01601f1916010190565b6020908160408183019282815285518094520193019160005b828110611050575050505090565b835185529381019392810192600101611042565b60001981146102b75760010190565b67ffffffffffffffff811161053c5760051b60200190565b60ff8091169081156111a557604091825192610240840184811067ffffffffffffffff82111761053c578152600184526003602092818487015260059485848801526007606088015260096080880152600c60a0880152600e60c0880152601060e0880152601296876101008201526013610120820152601561014082015260176101608201526019610180820152601b6101a0820152601e6101c0820152856101e08201526022610200820152602461022082015260005b88811061116f57505050505064626c61636b60d81b929350519261116784610e5e565b835282015290565b8281891b83015116841461118b5761118690611064565b611144565b505050509350621c995960ea1b9250519261116784610e5e565b50506040516111b381610e5e565b600581526433b932b2b760d91b60208201529056fea2646970667358221220f75010c3d468ac4120e705ce7db19eb23b40828eb79ce894df43de3747fd73c064736f6c63430008140033",
  "linkReferences": {},
  "deployedLinkReferences": {}
}