{
  "_format": "hh-sol-artifact-1",
  "contractName": "SRAND",
  "sourceName": "contracts/base/SRAND.sol",
  "abi": [
    {
      "inputs": [],
      "stateMutability": "nonpayable",
      "type": "constructor"
    },
    {
      "inputs": [
        {
          "internalType": "address",
          "name": "spender",
          "type": "address"
        },
        {
          "internalType": "uint256",
          "name": "allowance",
          "type": "uint256"
        },
        {
          "internalType": "uint256",
          "name": "needed",
          "type": "uint256"
        }
      ],
      "name": "ERC20InsufficientAllowance",
      "type": "error"
    },
    {
      "inputs": [
        {
          "internalType": "address",
          "name": "sender",
          "type": "address"
        },
        {
          "internalType": "uint256",
          "name": "balance",
          "type": "uint256"
        },
        {
          "internalType": "uint256",
          "name": "needed",
          "type": "uint256"
        }
      ],
      "name": "ERC20InsufficientBalance",
      "type": "error"
    },
    {
      "inputs": [
        {
          "internalType": "address",
          "name": "approver",
          "type": "address"
        }
      ],
      "name": "ERC20InvalidApprover",
      "type": "error"
    },
    {
      "inputs": [
        {
          "internalType": "address",
          "name": "receiver",
          "type": "address"
        }
      ],
      "name": "ERC20InvalidReceiver",
      "type": "error"
    },
    {
      "inputs": [
        {
          "internalType": "address",
          "name": "sender",
          "type": "address"
        }
      ],
      "name": "ERC20InvalidSender",
      "type": "error"
    },
    {
      "inputs": [
        {
          "internalType": "address",
          "name": "spender",
          "type": "address"
        }
      ],
      "name": "ERC20InvalidSpender",
      "type": "error"
    },
    {
      "inputs": [
        {
          "internalType": "address",
          "name": "owner",
          "type": "address"
        }
      ],
      "name": "OwnableInvalidOwner",
      "type": "error"
    },
    {
      "inputs": [
        {
          "internalType": "address",
          "name": "account",
          "type": "address"
        }
      ],
      "name": "OwnableUnauthorizedAccount",
      "type": "error"
    },
    {
      "anonymous": false,
      "inputs": [
        {
          "indexed": true,
          "internalType": "address",
          "name": "owner",
          "type": "address"
        },
        {
          "indexed": true,
          "internalType": "address",
          "name": "spender",
          "type": "address"
        },
        {
          "indexed": false,
          "internalType": "uint256",
          "name": "value",
          "type": "uint256"
        }
      ],
      "name": "Approval",
      "type": "event"
    },
    {
      "anonymous": false,
      "inputs": [
        {
          "indexed": true,
          "internalType": "address",
          "name": "previousOwner",
          "type": "address"
        },
        {
          "indexed": true,
          "internalType": "address",
          "name": "newOwner",
          "type": "address"
        }
      ],
      "name": "OwnershipTransferred",
      "type": "event"
    },
    {
      "anonymous": false,
      "inputs": [
        {
          "indexed": true,
          "internalType": "address",
          "name": "from",
          "type": "address"
        },
        {
          "indexed": true,
          "internalType": "address",
          "name": "to",
          "type": "address"
        },
        {
          "indexed": false,
          "internalType": "uint256",
          "name": "value",
          "type": "uint256"
        }
      ],
      "name": "Transfer",
      "type": "event"
    },
    {
      "inputs": [
        {
          "internalType": "address",
          "name": "owner",
          "type": "address"
        },
        {
          "internalType": "address",
          "name": "spender",
          "type": "address"
        }
      ],
      "name": "allowance",
      "outputs": [
        {
          "internalType": "uint256",
          "name": "",
          "type": "uint256"
        }
      ],
      "stateMutability": "view",
      "type": "function"
    },
    {
      "inputs": [
        {
          "internalType": "address",
          "name": "spender",
          "type": "address"
        },
        {
          "internalType": "uint256",
          "name": "value",
          "type": "uint256"
        }
      ],
      "name": "approve",
      "outputs": [
        {
          "internalType": "bool",
          "name": "",
          "type": "bool"
        }
      ],
      "stateMutability": "nonpayable",
      "type": "function"
    },
    {
      "inputs": [
        {
          "internalType": "address",
          "name": "account",
          "type": "address"
        }
      ],
      "name": "balanceOf",
      "outputs": [
        {
          "internalType": "uint256",
          "name": "",
          "type": "uint256"
        }
      ],
      "stateMutability": "view",
      "type": "function"
    },
    {
      "inputs": [
        {
          "internalType": "uint256",
          "name": "amount",
          "type": "uint256"
        }
      ],
      "name": "burn",
      "outputs": [],
      "stateMutability": "nonpayable",
      "type": "function"
    },
    {
      "inputs": [
        {
          "internalType": "address",
          "name": "account",
          "type": "address"
        },
        {
          "internalType": "uint256",
          "name": "amount",
          "type": "uint256"
        }
      ],
      "name": "burnFrom",
      "outputs": [],
      "stateMutability": "nonpayable",
      "type": "function"
    },
    {
      "inputs": [],
      "name": "decimals",
      "outputs": [
        {
          "internalType": "uint8",
          "name": "",
          "type": "uint8"
        }
      ],
      "stateMutability": "view",
      "type": "function"
    },
    {
      "inputs": [],
      "name": "getTokenInfo",
      "outputs": [
        {
          "internalType": "string",
          "name": "name",
          "type": "string"
        },
        {
          "internalType": "string",
          "name": "symbol",
          "type": "string"
        },
        {
          "internalType": "uint8",
          "name": "decimals",
          "type": "uint8"
        },
        {
          "internalType": "uint256",
          "name": "totalSupply",
          "type": "uint256"
        }
      ],
      "stateMutability": "view",
      "type": "function"
    },
    {
      "inputs": [
        {
          "internalType": "address",
          "name": "to",
          "type": "address"
        },
        {
          "internalType": "uint256",
          "name": "amount",
          "type": "uint256"
        }
      ],
      "name": "mint",
      "outputs": [],
      "stateMutability": "nonpayable",
      "type": "function"
    },
    {
      "inputs": [],
      "name": "name",
      "outputs": [
        {
          "internalType": "string",
          "name": "",
          "type": "string"
        }
      ],
      "stateMutability": "view",
      "type": "function"
    },
    {
      "inputs": [],
      "name": "owner",
      "outputs": [
        {
          "internalType": "address",
          "name": "",
          "type": "address"
        }
      ],
      "stateMutability": "view",
      "type": "function"
    },
    {
      "inputs": [],
      "name": "renounceOwnership",
      "outputs": [],
      "stateMutability": "nonpayable",
      "type": "function"
    },
    {
      "inputs": [],
      "name": "symbol",
      "outputs": [
        {
          "internalType": "string",
          "name": "",
          "type": "string"
        }
      ],
      "stateMutability": "view",
      "type": "function"
    },
    {
      "inputs": [],
      "name": "totalSupply",
      "outputs": [
        {
          "internalType": "uint256",
          "name": "",
          "type": "uint256"
        }
      ],
      "stateMutability": "view",
      "type": "function"
    },
    {
      "inputs": [
        {
          "internalType": "address",
          "name": "to",
          "type": "address"
        },
        {
          "internalType": "uint256",
          "name": "value",
          "type": "uint256"
        }
      ],
      "name": "transfer",
      "outputs": [
        {
          "internalType": "bool",
          "name": "",
          "type": "bool"
        }
      ],
      "stateMutability": "nonpayable",
      "type": "function"
    },
    {
      "inputs": [
        {
          "internalType": "address",
          "name": "from",
          "type": "address"
        },
        {
          "internalType": "address",
          "name": "to",
          "type": "address"
        },
        {
          "internalType": "uint256",
          "name": "value",
          "type": "uint256"
        }
      ],
      "name": "transferFrom",
      "outputs": [
        {
          "internalType": "bool",
          "name": "",
          "type": "bool"
        }
      ],
      "stateMutability": "nonpayable",
      "type": "function"
    },
    {
      "inputs": [
        {
          "internalType": "address",
          "name": "newOwner",
          "type": "address"
        }
      ],
      "name": "transferOwnership",
      "outputs": [],
      "stateMutability": "nonpayable",
      "type": "function"
    }
  ],
  "bytecode": "0x608034620003d9576040906001600160401b0381830181811183821017620002db578352600a8252602090695365727652616e646f6d60b01b8284015283519284840184811083821117620002db5785526005918285526414d490539160da1b848601528151818111620002db576003908154906001948583811c93168015620003ce575b88841014620003b8578190601f9384811162000364575b508890848311600114620002fd57600092620002f1575b505060001982851b1c191690851b1782555b8651928311620002db5760049687548581811c91168015620002d0575b88821014620002bb5782811162000272575b50869184116001146200020757938394918492600095620001fb575b50501b92600019911b1c19161783555b3315620001e4578054336001600160a01b0319821681179092556001600160a01b03167f8be0079c531659141344cd1fd0a4f28419497f9722a3daafe3b4186f6b6457e0600080a360025469d3c21bcecceda100000092838201809211620001cf57506000917fddf252ad1be2c89b69c2b068fc378daa952ba7f163c4a11628f55a4df523b3ef9160025533835282815284832084815401905584519384523393a351610ad69081620003df8239f35b601190634e487b7160e01b6000525260246000fd5b8351631e4fbdf760e01b8152600081850152602490fd5b0151935038806200010f565b9190601f198416928860005284886000209460005b8a898383106200025a57505050106200023f575b50505050811b0183556200011f565b01519060f884600019921b161c191690553880808062000230565b8686015189559097019694850194889350016200021c565b886000528760002083808701891c8201928a8810620002b1575b01881c019086905b828110620002a4575050620000f3565b6000815501869062000294565b925081926200028c565b602289634e487b7160e01b6000525260246000fd5b90607f1690620000e1565b634e487b7160e01b600052604160045260246000fd5b015190503880620000b2565b90879350601f19831691866000528a6000209260005b8c8282106200034d575050841162000334575b505050811b018255620000c4565b015160001983871b60f8161c1916905538808062000326565b8385015186558b9790950194938401930162000313565b9091508460005288600020848085018a1c8201928b8610620003ae575b91899186959493018b1c01915b8281106200039e5750506200009b565b600081558594508991016200038e565b9250819262000381565b634e487b7160e01b600052602260045260246000fd5b92607f169262000084565b600080fdfe6080604081815260048036101561001557600080fd5b600092833560e01c90816306fdde031461066b57508063095ea7b3146105c257806318160ddd146105a357806323b872dd14610566578063313ce5671461054a57806340c10f191461049b57806342966c681461047d57806370a0823114610446578063715018a6146103e957806379cc6790146103b65780638da5cb5b1461038d57806395d89b411461026f578063a9059cbb1461023e578063abb1dc44146101b2578063dd62ed3e146101655763f2fde38b146100d357600080fd5b34610161576020366003190112610161576100ec61079f565b906100f56107d0565b6001600160a01b0391821692831561014b575050600554826bffffffffffffffffffffffff60a01b821617600555167f8be0079c531659141344cd1fd0a4f28419497f9722a3daafe3b4186f6b6457e08380a380f35b51631e4fbdf760e01b8152908101849052602490fd5b8280fd5b5050346101ae57806003193601126101ae578060209261018361079f565b61018b6107ba565b6001600160a01b0391821683526001865283832091168252845220549051908152f35b5080fd5b5050346101ae57816003193601126101ae578051610223916101d3826107fc565b600a8252695365727652616e646f6d60b01b602083015280516101f5816107fc565b600581526414d490539160da1b6020820152601261023160025492845196879660808852608088019061075f565b90868203602088015261075f565b9284015260608301520390f35b5050346101ae57806003193601126101ae5760209061026861025e61079f565b6024359033610850565b5160018152f35b50913461038a578060031936011261038a5781519181845492600184811c91818616958615610380575b602096878510811461036d579087899a92868b999a9b5291826000146103435750506001146102e8575b85886102e4896102d5848a038561082e565b5192828493845283019061075f565b0390f35b815286935091907f8a35acfbc15ff81a39ae7d344fd709f28e8600b4aa8c65c6b64bfe7fe36bd19b5b82841061032b57505050820101816102d56102e4386102c3565b8054848a018601528895508794909301928101610311565b60ff19168882015294151560051b870190940194508593506102d592506102e491503890506102c3565b634e487b7160e01b835260228a52602483fd5b92607f1692610299565b80fd5b5050346101ae57816003193601126101ae5760055490516001600160a01b039091168152602090f35b5050346101ae5736600319011261038a576103e66103d261079f565b602435906103e182338361092e565b610a01565b80f35b833461038a578060031936011261038a576104026107d0565b600580546001600160a01b0319811690915581906001600160a01b03167f8be0079c531659141344cd1fd0a4f28419497f9722a3daafe3b4186f6b6457e08280a380f35b5050346101ae5760203660031901126101ae5760209181906001600160a01b0361046e61079f565b16815280845220549051908152f35b8382346101ae5760203660031901126101ae576103e6903533610a01565b5090346101615780600319360112610161576104b561079f565b90602435916104c26107d0565b6001600160a01b03169283156105355760025490838201809211610522575084927fddf252ad1be2c89b69c2b068fc378daa952ba7f163c4a11628f55a4df523b3ef9260209260025585855284835280852082815401905551908152a380f35b634e487b7160e01b865260119052602485fd5b84602492519163ec442f0560e01b8352820152fd5b5050346101ae57816003193601126101ae576020905160128152f35b5050346101ae5760603660031901126101ae5760209061026861058761079f565b61058f6107ba565b6044359161059e83338361092e565b610850565b5050346101ae57816003193601126101ae576020906002549051908152f35b50346101615781600319360112610161576105db61079f565b602435903315610654576001600160a01b031691821561063d57508083602095338152600187528181208582528752205582519081527f8c5be1e5ebec7d5bd14f71427d1e84f3dd0314c0f7b2291e5b200ac8c7c3b925843392a35160018152f35b8351634a1406b160e11b8152908101859052602490fd5b835163e602df0560e01b8152808401869052602490fd5b90508383346101ae57816003193601126101ae578160035492600184811c91818616958615610755575b602096878510811461036d578899509688969785829a52918260001461072e5750506001146106d2575b5050506102e492916102d591038561082e565b9190869350600383527fc2575a0e9e593c00f959f8c92f12db2869c3395a3b0502d05e2516446f71f85b5b82841061071657505050820101816102d56102e46106bf565b8054848a0186015288955087949093019281016106fd565b60ff19168782015293151560051b860190930193508492506102d591506102e490506106bf565b92607f1692610695565b919082519283825260005b84811061078b575050826000602080949584010152601f8019910116010190565b60208183018101518483018201520161076a565b600435906001600160a01b03821682036107b557565b600080fd5b602435906001600160a01b03821682036107b557565b6005546001600160a01b031633036107e457565b60405163118cdaa760e01b8152336004820152602490fd5b6040810190811067ffffffffffffffff82111761081857604052565b634e487b7160e01b600052604160045260246000fd5b90601f8019910116810190811067ffffffffffffffff82111761081857604052565b916001600160a01b0380841692831561091557169283156108fc57600090838252816020526040822054908382106108ca575091604082827fddf252ad1be2c89b69c2b068fc378daa952ba7f163c4a11628f55a4df523b3ef958760209652828652038282205586815220818154019055604051908152a3565b60405163391434e360e21b81526001600160a01b03919091166004820152602481019190915260448101839052606490fd5b60405163ec442f0560e01b815260006004820152602490fd5b604051634b637e8f60e11b815260006004820152602490fd5b9160018060a01b03809316916000938385526001602052604093848620918316918287526020528486205492600019841061096d575b50505050505050565b8484106109d1575080156109b95781156109a157855260016020528385209085526020520391205538808080808080610964565b8451634a1406b160e11b815260048101879052602490fd5b845163e602df0560e01b815260048101879052602490fd5b8551637dc7a0d960e11b81526001600160a01b039190911660048201526024810184905260448101859052606490fd5b906001600160a01b0382169081156109155760009282845283602052604084205490828210610a6e5750817fddf252ad1be2c89b69c2b068fc378daa952ba7f163c4a11628f55a4df523b3ef926020928587528684520360408620558060025403600255604051908152a3565b60405163391434e360e21b81526001600160a01b03919091166004820152602481019190915260448101829052606490fdfea26469706673582212207fcd37443d296101b21e3f14ce967d7da6aadac51598c91816a26eb7bf09003b64736f6c63430008140033",
  "linkReferences": {},
  "deployedLinkReferences": {}
}